:100000001AC034C033C032C058C230C02FC02EC056
:100010002DC02CC0FFC02AC029C028C027C000376F
:10002000003800360101010101010102040810201D
:1000300001030000000011241FBECFE5D1E0DEBFA8
:10004000CDBF10E0A0E6B0E0EEE7F6E002C005901C
:100050000D92A236B107D9F710E0A2E6B0E001C0D8
:100060001D92A737B107E1F7ADD007C3C9CF0895F7
:1000700084B195B112D0BC0190936300809362006B
:10008000660F771F709365006093640081E020E045
:1000900030E040E050E024D10895482F863008F049
:1000A00046508091660027B1382F3295330F330FB9
:1000B000307C2F72322B90E08470907096958795EB
:1000C000969587958295807F382B37B987B1807F49
:1000D000842B87B9369A3699FECF24B135B1C90140
:1000E0000895282F30E0C901865D9F4FFC0144919F
:1000F0002C5D3F4FF9018491882371F1282F30E066
:10010000F901E25EFF4FE491AE2FB0E0205E3F4F79
:10011000F9018491E82FF0E0662351F42FB7F894A9
:100120008C91942F909589238C93808189230BC087
:10013000623061F42FB7F8948C91942F90958923B5
:100140008C938081842B80832FBF08959FB7F89470
:100150008C91842B8C939FBF0895282F482F50E0BB
:10016000CA01865D9F4FFC0134914C5D5F4FFA01DF
:100170009491992331F1222319F48AB58F7304C025
:10018000213021F48AB58F7C8ABD05C0243019F452
:100190008CB58F7C8CBDE92FF0E0E05EFF4FE491E1
:1001A000F0E0662341F49FB7F89480813095832373
:1001B00080839FBF08959FB7F8948081832B8083AD
:1001C0009FBF0895DDD153DF53DFFECF90916000D4
:1001D0009F3FF9F0981711F08F3FD9F489B7857ECA
:1001E00089BF83B7887F83BFB1D1E0916B00F09165
:1001F0006C00309739F0908180916D008095892353
:10020000808304C08091600060E0A7DF8FEF80935F
:10021000600008951F920F920FB60F9211242F9332
:100220003F934F935F936F937F938F939F93AF937E
:10023000BF93EF93FF938091670090916800A09126
:100240006900B0916A000097A105B105B1F18091F4
:10025000670090916800A0916900B0916A0018163B
:1002600019061A061B06FCF480916700909168003D
:10027000A0916900B0916A000197A109B10980932A
:10028000670090936800A0936900B0936A00809122
:10029000670090916800A0916900B0916A00009792
:1002A000A105B10551F0E0916B00F0916C008081E7
:1002B00090916D008927808302C08FEF87DFFF91C7
:1002C000EF91BF91AF919F918F917F916F915F91CE
:1002D0004F913F912F910F900FBE0F901F90189547
:1002E000BF92CF92DF92EF92FF920F931F93CF9323
:1002F000DF93182FEB0169017A01809160008F3F35
:1003000009F040C013BE1ABC12BE19BC18BC89B794
:10031000857E89BF88B78A6188BF8AB58C7F8260F5
:100320008ABD83B7877F83BF123080F410926C0040
:1003300010926B0010926D00112321F48AB58F7317
:1003400080641AC08AB58F7C806116C0812F90E0CE
:10035000FC01EC5DFF4FE491F0E0E05EFF4FE491C3
:10036000E0936B0010926C00865D9F4FFC018491BE
:1003700080936D008AB58F708ABD812F61E0B1DEF8
:1003800010936000B0906000B11609F08CC083B784
:10039000887F83BF12BE209709F47FC0C031D1058A
:1003A00038F420E034E005E010E0C0E1D0E026C001
:1003B000CD33D10528F420E034E005E010E01EC084
:1003C000C43FD10528F420E031E004E010E016C07D
:1003D000F7E0CE39DF0728F420E430E003E010E056
:1003E0000DC08CE3CB3ED80728F021E030E001E0DF
:1003F00010E004C028E030E002E010E0BE0180E040
:1004000090E040E050E0E3D09B01AC01220F331FAD
:10041000441F551F60E074E284EF90E013D12F5F1A
:100420003F4F4F4F5F4F5595479537952795215033
:1004300029BDC114D104E104F104C1F0CC0FDD1FCA
:10044000BE0180E090E0A7019601C1D028EE33E024
:1004500040E050E0D5D0C901DA0180936700909365
:100460006800A0936900B0936A000FC08FEF9FEF00
:10047000AFEFBFEF8093670090936800A09369008F
:10048000B0936A00E1E0EB1518F489B7806189BF89
:1004900083B7887F802B83BF06C089B7857E89BFDD
:1004A000812F60E05ADEDF91CF911F910F91FF9075
:1004B000EF90DF90CF90BF9008951F920F920FB6EC
:1004C0000F9211242F933F938F939F93AF93BF93DA
:1004D0008091720090917300A0917400B0917500AA
:1004E00030917600232F2A5F2D3728F02D57039661
:1004F000A11DB11D03C00296A11DB11D2093760060
:100500008093720090937300A0937400B093750071
:1005100080916E0090916F00A0917000B091710079
:100520000196A11DB11D80936E0090936F00A09362
:100530007000B0937100BF91AF919F918F913F91E7
:100540002F910F900FBE0F901F90189513BE1ABCDD
:1005500012BE19BC18BC89B7857E89BF88B78A616D
:1005600088BF83B7887F83BF8AB58C7F81608ABD4F
:1005700083B7877F83BF83B7887F836083BF0895F6
:10058000789480B7806880BF80B7806480BF8CB566
:1005900080648CBD8FEF8DBD80B7807F876080BF0A
:1005A00089B7846089BF83B7887F83BF8AB58C7F12
:1005B00081608ABD83B7877F83BF83B7887F83606D
:1005C00083BF86B1887F866086B9379A0895FF27F2
:1005D000EE27BB27AA2760FF04C0A20FB31FE41FAA
:1005E000F51F220F331F441F551F9695879577954A
:1005F000679589F70097760771F7CF01BD010895D8
:10060000A1E21A2EAA1BBB1BFD010DC0AA1FBB1F16
:10061000EE1FFF1FA217B307E407F50720F0A21B88
:10062000B30BE40BF50B661F771F881F991F1A94F5
:1006300069F760957095809590959B01AC01BD011F
:10064000CF01089597FB092E05260ED057FD04D043
:10065000D7DF0AD0001C38F450954095309521958D
:100660003F4F4F4F5F4F0895F6F7909580957095E7
:0E06700061957F4F8F4F9F4F0895F894FFCFF5
:02067E00FF007B
:00000001FF
