:100000001AC032C031C030C063C02EC02DC02CC059
:100010002BC02AC0FFC128C027C026C025C000377A
:10002000003800360101010101010102040810201D
:1000300001030000000011241FBECFEDCDBF10E072
:10004000A0E6B0E0E8EBF7E002C005900D92A23622
:10005000B107D9F710E0A2E6B0E001C01D92A337C6
:10006000B107E1F7AFD1A6C3CBCF08950F931F938C
:10007000CF93DF9300E010E0C0E0D0E084B195B111
:100080000CD1080F191F62E070E080E090E069D0A9
:100090002196C530D10591F7083C11051CF468EC98
:1000A00070E004C0C80165E070E020D375956795E5
:1000B00081E020E030E040E050E012D264E170E006
:1000C00080E090E04ED0DF91CF911F910F91089585
:1000D0001F920F920FB60F9211242F933F938F937D
:1000E0009F93AF93BF938091660090916700A0911A
:1000F0006800B091690030916A00232F2A5F2D3784
:1001000028F02D570396A11DB11D03C00296A11D15
:10011000B11D20936A008093660090936700A093BE
:100120006800B09369008091620090916300A09193
:100130006400B09165000196A11DB11D809362001D
:1001400090936300A0936400B0936500BF91AF915A
:100150009F918F913F912F910F900FBE0F901F9005
:1001600018959B01AC017FB7F89480916200909143
:100170006300A0916400B09165006FB508B602FEFF
:1001800005C06F3F19F00196A11DB11D7FBFBA2FA9
:10019000A92F982F8827860F911DA11DB11D63E0FF
:1001A000880F991FAA1FBB1F6A95D1F7BC012EC0EB
:1001B000FFB7F8948091620090916300A091640071
:1001C000B0916500EFB508B602FE05C0EF3F19F02B
:1001D0000196A11DB11DFFBFBA2FA92F982F882707
:1001E0008E0F911DA11DB11DE3E0880F991FAA1F5D
:1001F000BB1FEA95D1F7861B970B885E9340C0F230
:10020000215030404040504068517C4F211531050D
:100210004105510569F6089513BE1ABC12BE19BCFA
:1002200018BC89B7857E89BF88B78A6188BF83B7C4
:10023000887F83BF8AB58C7F81608ABD83B7877FC3
:1002400083BF83B7887F836083BF0895789480B726
:10025000806880BF80B7806480BF8CB580648CBDAF
:100260008FEF8DBD80B7807F876080BF89B7846046
:1002700089BF83B7887F83BF8AB58C7F81608ABD41
:1002800083B7877F83BF83B7887F836083BF86B14F
:10029000887F866086B9379A0895482F863008F09F
:1002A000465080916B0027B1382F3295330F330FB2
:1002B000307C2F72322B90E08470907096958795E9
:1002C000969587958295807F382B37B987B1807F47
:1002D000842B87B9369A3699FECF24B135B1C9013E
:1002E0000895282F30E0C901865D9F4FFC0144919D
:1002F0002C5D3F4FF9018491882371F1282F30E064
:10030000F901E25EFF4FE491AE2FB0E0205E3F4F77
:10031000F9018491E82FF0E0662351F42FB7F894A7
:100320008C91942F909589238C93808189230BC085
:10033000623061F42FB7F8948C91942F90958923B3
:100340008C938081842B80832FBF08959FB7F8946E
:100350008C91842B8C939FBF0895282F482F50E0B9
:10036000CA01865D9F4FFC0134914C5D5F4FFA01DD
:100370009491992331F1222319F48AB58F7304C023
:10038000213021F48AB58F7C8ABD05C0243019F450
:100390008CB58F7C8CBDE92FF0E0E05EFF4FE491DF
:1003A000F0E0662341F49FB7F89480813095832371
:1003B00080839FBF08959FB7F8948081832B8083AB
:1003C0009FBF089543DF51DE51DEFECF9091600064
:1003D0009F3FF9F0981711F08F3FD9F489B7857EC8
:1003E00089BF83B7887F83BF17DFE0917000F091EA
:1003F0007100309739F09081809172008095892347
:10040000808304C08091600060E0A7DF8FEF80935D
:10041000600008951F920F920FB60F9211242F9330
:100420003F934F935F936F937F938F939F93AF937C
:10043000BF93EF93FF9380916C0090916D00A0911A
:100440006E00B0916F000097A105B105B1F18091E8
:100450006C0090916D00A0916E00B0916F00181625
:1004600019061A061B06FCF480916C0090916D0031
:10047000A0916E00B0916F000197A109B10980931E
:100480006C0090936D00A0936E00B0936F0080910C
:100490006C0090916D00A0916E00B0916F0000977C
:1004A000A105B10551F0E0917000F09171008081DB
:1004B000909172008927808302C08FEF87DFFF91C0
:1004C000EF91BF91AF919F918F917F916F915F91CC
:1004D0004F913F912F910F900FBE0F901F90189545
:1004E000BF92CF92DF92EF92FF920F931F93CF9321
:1004F000DF93182FEB0169017A01809160008F3F33
:1005000009F040C013BE1ABC12BE19BC18BC89B792
:10051000857E89BF88B78A6188BF8AB58C7F8260F3
:100520008ABD83B7877F83BF123080F41092710039
:100530001092700010927200112321F48AB58F730B
:1005400080641AC08AB58F7C806116C0812F90E0CC
:10055000FC01EC5DFF4FE491F0E0E05EFF4FE491C1
:10056000E093700010927100865D9F4FFC018491B2
:10057000809372008AB58F708ABD812F61E0B1DEF1
:1005800010936000B0906000B11609F08CC083B782
:10059000887F83BF12BE209709F47FC0C031D10588
:1005A00038F420E034E005E010E0C0E1D0E026C0FF
:1005B000CD33D10528F420E034E005E010E01EC082
:1005C000C43FD10528F420E031E004E010E016C07B
:1005D000F7E0CE39DF0728F420E430E003E010E054
:1005E0000DC08CE3CB3ED80728F021E030E001E0DD
:1005F00010E004C028E030E002E010E0BE0180E03E
:1006000090E040E050E059D09B01AC01220F331F35
:10061000441F551F60E074E284EF90E09CD02F5F90
:100620003F4F4F4F5F4F5595479537952795215031
:1006300029BDC114D104E104F104C1F0CC0FDD1FC8
:10064000BE0180E090E0A701960137D028EE33E0AC
:1006500040E050E05ED0C901DA0180936C009093D5
:100660006D00A0936E00B0936F000FC08FEF9FEFEF
:10067000AFEFBFEF80936C0090936D00A0936E007E
:10068000B0936F00E1E0EB1518F489B7806189BF82
:1006900083B7887F802B83BF06C089B7857E89BFDB
:1006A000812F60E05ADEDF91CF911F910F91FF9073
:1006B000EF90DF90CF90BF900895FF27EE27BB27E4
:1006C000AA2760FF04C0A20FB31FE41FF51F220F6B
:1006D000331F441F551F969587957795679589F722
:1006E0000097760771F7CF01BD01089597FB092E9A
:1006F00007260AD077FD04D049D006D000201AF48E
:10070000709561957F4F0895F6F7909581959F4F6D
:100710000895A1E21A2EAA1BBB1BFD010DC0AA1F42
:10072000BB1FEE1FFF1FA217B307E407F50720F05A
:10073000A21BB30BE40BF50B661F771F881F991FD5
:100740001A9469F760957095809590959B01AC011E
:10075000BD01CF01089597FB092E05260ED057FD48
:1007600004D0D7DF0AD0001C38F45095409530955E
:1007700021953F4F4F4F5F4F0895F6F79095809525
:10078000709561957F4F8F4F9F4F0895AA1BBB1B9C
:1007900051E107C0AA1FBB1FA617B70710F0A61B81
:1007A000B70B881F991F5A95A9F780959095BC01A2
:0807B000CD010895F894FFCF7C
:0207B800FF0040
:00000001FF
