:100000001AC032C031C030C0A0C12EC02DC02CC01B
:100010002BC02AC029C028C027C026C025C0003751
:10002000003800360101010101010102040810201D
:1000300001030000000011241FBECFEDCDBF10E072
:10004000A0E6B0E0E0EAF4E002C005900D92A6362A
:10005000B107D9F710E0A6E6B0E001C01D92A037C5
:10006000B107E1F76ED11AC2CBCF6F927F928F9218
:100070009F92AF92BF92CF92DF92EF92FF920F9337
:100080001F93DF93CF93CDB7DEB762970FB6F89487
:10009000DEBF0FBECDBF81E08DD07C0183E08AD072
:1000A0008C0180E087D0FE01319626E0DF011D92B1
:1000B0002A95E9F7FA82E9821C830B839E838D835C
:1000C000DE011796E0E6F0E086E001900D928150A7
:1000D000E1F75E010894A11CB11C27E0C22ED12CCF
:1000E000CC0EDD1E8E01035F1F4FEE24FF2496EF22
:1000F000692E99E0792E8FEF882E912CF501808161
:100100009181F1E0843F9F0724F0D8011D921C9259
:100110000FC08739910524F4F8017182608208C00C
:1001200069EF7FEF82D1845C914FD8018D939C93CE
:10013000F6012081D8018D919C91E114F10419F010
:100140006AE070E002C06FE070E081D1F401E61B6C
:10015000F70BBF01822F52D00894E11CF11C82E002
:1001600090E0A80EB91EC80ED91E0E5F1F4F93E077
:10017000E916F10419F662960FB6F894DEBF0FBEC9
:10018000CDBFCF91DF911F910F91FF90EF90DF9046
:10019000CF90BF90AF909F908F907F906F90089579
:1001A00080E061E05DD081E061E05AD084E061E010
:1001B00057D00895482F863008F046508091660049
:1001C00027B1382F3295330F330F307C2F72322BFB
:1001D00090E0847090709695879596958795829516
:1001E000807F382B37B987B1807F842B87B9369AC7
:1001F0003699FECF24B135B1C90108951F93CF932D
:10020000DF93182FEB0161E02BD01C161D06F4F4D0
:10021000CF3FD105F4F4112331F48AB58F73806890
:100220008ABDC9BD19C0113031F48AB58F7C806296
:100230008ABDC8BD11C0143031F48CB58F7C80628A
:100240008CBDCBBD09C0C038D1051CF4812F60E046
:1002500002C0812F61E040D0DF91CF911F910895BE
:10026000282F30E0C901865D9F4FFC0144912C5D31
:100270003F4FF9018491882371F1282F30E0F90173
:10028000E25EFF4FE491AE2FB0E0205E3F4FF901F8
:100290008491E82FF0E0662351F42FB7F8948C9105
:1002A000942F909589238C93808189230BC0623091
:1002B00061F42FB7F8948C91942F909589238C93A7
:1002C0008081842B80832FBF08959FB7F8948C91F1
:1002D000842B8C939FBF0895282F482F50E0CA018C
:1002E000865D9F4FFC0134914C5D5F4FFA01949104
:1002F000992331F1222319F48AB58F7304C0213078
:1003000021F48AB58F7C8ABD05C0243019F48CB5E0
:100310008F7C8CBDE92FF0E0E05EFF4FE491F0E0D0
:10032000662341F49FB7F8948081309583238083BE
:100330009FBF08959FB7F8948081832B80839FBFD0
:1003400008954CD02DDF91DEFECF1F920F920FB695
:100350000F9211242F933F938F939F93AF93BF934B
:1003600080916B0090916C00A0916D00B0916E0037
:1003700030916F00232F2A5F2D3728F02D570396D9
:10038000A11DB11D03C00296A11DB11D20936F00D8
:1003900080936B0090936C00A0936D00B0936E00FF
:1003A0008091670090916800A0916900B0916A0007
:1003B0000196A11DB11D8093670090936800A093E2
:1003C0006900B0936A00BF91AF919F918F913F9167
:1003D0002F910F900FBE0F901F901895789480B7B3
:1003E000806880BF80B7806480BF8CB580648CBD1E
:1003F0008FEF8DBD80B7807F876080BF89B78460B5
:1004000089BF83B7887F83BF8AB58C7F81608ABDAF
:1004100083B7877F83BF83B7887F836083BF86B1BD
:10042000887F866086B9379A08955527002480FF13
:1004300002C0060E571F660F771F6115710521F068
:1004400096958795009799F7952F802D089597FB9E
:10045000092E07260AD077FD04D00CD006D0002044
:100460001AF4709561957F4F0895F6F790958195F0
:100470009F4F0895AA1BBB1B51E107C0AA1FBB1FBA
:10048000A617B70710F0A61BB70B881F991F5A9520
:10049000A9F780959095BC01CD010895F894FFCF00
:0604A00000000100040051
:00000001FF
